:1000000002308A00EE2A0000FF00030E8301A100E7
:100010000A08A0008A010408A2007708A300780853
:10002000A4007908A5007A08A60003170D08031399
:10003000A70003170F080313A80003170C080313E6
:10004000A90003170E080313AA00831383128C3030
:100050008400801E2D288C1A4E2822088400230834
:10006000F7002408F8002508F9002608FA002708F8
:1000700003178D000313280803178F0003132908A3
:1000800003178C0003132A0803178E00031320089C
:100090008A00210E8300FF0E7F0E09008A110A12CA
:1000A00066286A08F8016902031859286908F700E8
:1000B0006528F7010830EB00E90DF70D6A087702B3
:1000C0000318F700F80DEB0B5C28080083168C1260
:1000D0004B30840083138403840A10308312E700BA
:1000E0000230E8009B30E9000330E902031C82285B
:1000F000693084008313000803198228802880282F
:10010000800B7F28E80B7228E70B8928B101F801E2
:1001100093288C1E70281808B1001A08F800B11C2A
:10012000932818121816780880000D300002031961
:100130009E28310803199E2883166C2880013030D0
:10014000CB00E8014B30E700EC01EA010A30EB009C
:10015000E90167086804031DB0280030F800A129F0
:100160006C08EC0A6707840083136818831700087B
:10017000ED006D082D3C031DC9280130EA006C0814
:10018000EC0A670784008313681883170008ED00E2
:10019000D6286D082B3C031DD6286C08EC0A67078F
:1001A00084008313681883170008ED006D082F3C46
:1001B000031897296D08393C031C97296D08303CBA
:1001C000031D02296C0867078400831368188317CE
:1001D0000008783C0319F6286C086707840083132D
:1001E000681883170008583C031D02291030EB00E3
:1001F000EC0A6C08EC0A67078400831368188317FD
:100200000008ED006B080A3C031D45296D082F3CD2
:10021000031844296D08393C031C44290A30EE00B8
:100220006908EF00F701F8016E0803106F18F7076F
:10023000F70CF80CEF18F707F70CF80C6F19F70725
:10024000F70CF80CEF19F707F70CF80C6F1AF70713
:10025000F70CF80CEF1AF707F70CF80C6F1BF70701
:10026000F70CF80CEF1BF707F70CF80C30306D02A9
:100270007807E9006C08EC0A6707840083136818A4
:1002800083170008ED00062997296B08103C031D11
:1002900097296D08603C031854296D087A3C031CAB
:1002A00054296D08DF3955296D08ED006D082F3C84
:1002B00003185E296D08393C031866296D08403C17
:1002C000031897296D08463C031C97296D082F3C9D
:1002D000031877296D08393C031C7729690EEE0055
:1002E000F030EE0530306D026E07E9008029690EAE
:1002F000EE00F030EE0541306D020A3E6E07E90077
:100300006C08EC0A670784008313681883170008D9
:10031000ED006D08603C031894296D087A3C031CBD
:1003200094296D08DF3995296D08ED0056296A0B6F
:100330009F296B080A3C031D9F29E909E90A6908FE
:10034000F8007808B8004D3003178D0002308F0098
:10035000031005300313E7000B08E8008B13831626
:1003600003178C170C140000000083120313E81B02
:100370008B170318E42903170C087F390313E800CF
:1003800003170D080313E90003170F080313EA000E
:1003900068080C1EC9299900690803178D0003130A
:1003A0006A0803178F0003130B08EB008B138316E7
:1003B00003178C170C140000000083120313EB1BAF
:1003C0008B17E70BE429042A03170C0D0E0D7F3958
:1003D0000313E80003170D080313E90003170F08C0
:1003E0000313EA0068080C1EF32999006908031733
:1003F0008D0003136A0803178F008D0A03198F0AF3
:1004000003100313E70BAC293808E7001330E800AA
:100410006708E9006430EA0051207708E7007808AF
:100420003030031D1A2AE81C222AE819222A681AE9
:1004300020301D2AE81168126814F80778080C1E8D
:100440001F2A99006708E9000A30EA00512077085E
:10045000E70078083030031D332AE819382A681C71
:10046000382A681A2030F80778080C1E352A9900B7
:100470003030E70767080C1E3B2A99000D300C1E30
:100480003F2A99000A300C1E432A990083168C16C5
:1004900083128C128A110A122D28E332F634F212DA
:1004A000B33A0D050000633084008313000803197C
:1004B000662A0630F800F701F70B5C2AF80B5B2A76
:1004C0007B30F700F70B622A800B592A0800DD0108
:1004D000DC010130DE005E08063C031C7B2A5E085E
:1004E000630784008313641883170008DC0703186C
:1004F000DD0ADE0A6B2A5C08FF3CE500FF30E600FF
:100500005D08031C5D0FE60201306507DC0066082C
:10051000DD000318DD0A07306307840083136418C5
:1005200083175D08FA018000083063078400831395
:10053000641883175C088000DE015E08093C031C18
:10054000CE2A5E08630784008313641883170008AB
:10055000E5006508E60083160610831206100830D1
:10056000F800B22A0000F817C32AF813E60C0318A3
:100570000614031C06107817C32A7813F80BB62A42
:10058000C12A00000614A7308400840BC52AC82A9B
:10059000F81BB52A781BBD2ADE0A9D2A0800063002
:1005A000D400D6016208D700E4015130E30067228D
:1005B0008A110A127A2B9F149F18DC2A1E08B20097
:1005C0008A110A127B2B0D30D400D601D701E40129
:1005D0005130E30067228A110A12862B03081F3963
:1005E00083008316061083120614B10183160317C5
:1005F000871508300313990002309A00A63098003E
:10060000903083129800B201B301B401B501B60174
:10061000B701B801B901BA01BE01BD01BC01BB01FE
:10062000DB01FF30DF00831603170908C03989009A
:1006300003131F129F1200300317880083128701D3
:100640008801890183130313AB01AC017E30D10013
:10065000FF30D2000630D3000330D400D501D601DC
:100660000230D700FE30D800F630D900EF30DA0083
:10067000DC01DD01DE010430E200FA30E300532248
:10068000E20B3D2B90010030F80092000030831601
:10069000920003170908C039890003131F129F1223
:1006A000013003178800831203131F139F1783164B
:1006B0009F1383121F14F0309D0503170510831636
:1006C00003138C16C03083128B040030F8001F080F
:1006D000C33978049F002130F700F70B6D2B5F13AF
:1006E0005F08831687008717FE3086001D3083124F
:1006F000E200CF2ADB2A3208643C03188D2B5F10FE
:100700005F088316870083120714E32A0830E2008B
:10071000FA30E3005322E20B882B5F105F08831648
:0A0720008700831207107A2B630094
:04400E00F220FF3F5E
:00000001FF
;PIC16F886
;CRC=1749  CREATED="05-Kas-22 11:35"
